:100000000C945D000C9487050C9460050C9485009D
:100010000C9485000C9485000C9485000C9485004C
:100020000C9485000C9485000C9485000C94AE050E
:100030000C9485000C9485000C9485000C9485002C
:100040000C9416050C9485000C94E4040C94BE04E6
:100050000C9485000C9485000C9485000C9485000C
:100060000C9485000C9485000000000024002700FB
:100070002A0000000000250028002B0004040404CE
:100080000404040402020202020203030303030342
:10009000010204081020408001020408102001021F
:1000A00004081020000000080002010000030407FB
:1000B0000000000000000000D80511241FBECFEF93
:1000C000D8E0DEBFCDBF11E0A0E0B1E0EAEAF1E1A7
:1000D00002C005900D92AA34B107D9F722E0AAE434
:1000E000B1E001C01D92AE30B207E1F710E0CDE5FE
:1000F000D0E004C02197FE010E94CD08CC35D10785
:10010000C9F70E9422060C94D3080C94000080E4E6
:1001100080937C0080917A00806480937A00809143
:100120007A0086FDFCCF8091780090917900089547
:1001300080915301909154010196909354018093C2
:1001400053010895AF92BF92CF92DF92EF92FF9248
:100150000F931F93CF93DF936C017B018B01040FEF
:10016000151FEB015E01AE18BF08C017D10759F08B
:100170006991D601ED91FC910190F081E02DC601CD
:100180000995892B79F7C501DF91CF911F910F91C7
:10019000FF90EF90DF90CF90BF90AF900895FC015B
:1001A000538D448D252F30E0842F90E0821B930BDC
:1001B000541710F0CF96089501970895FC01918D82
:1001C000828D981761F0A28DAE0FBF2FB11D5D9685
:1001D0008C91928D9F5F9F73928F90E008958FEF27
:1001E0009FEF0895FC01918D828D981731F0828DDB
:1001F000E80FF11D858D90E008958FEF9FEF089532
:10020000FC01918D228D892F90E0805C9F4F821B95
:1002100091098F739927089589E591E00E94000163
:1002200021E0892B09F420E0822F089580E090E0FE
:10023000892B29F00E940C0181110C940000089573
:10024000FC01A48DA80FB92FB11DA35ABF4F2C914B
:10025000848D90E001968F739927848FA689B78942
:100260002C93A089B1898C91837080648C93938D39
:10027000848D981306C00288F389E02D80818F7DDC
:1002800080830895EF92FF920F931F93CF93DF9394
:10029000EC0181E0888F9B8D8C8D98131AC0E889C2
:1002A000F989808185FF15C09FB7F894EE89FF8991
:1002B0006083E889F98980818370806480839FBF2F
:1002C00081E090E0DF91CF911F910F91FF90EF902F
:1002D0000895F62E0B8D10E00F5F1F4F0F7311273F
:1002E000E02E8C8D8E110CC00FB607FCFACFE8897A
:1002F000F989808185FFF5CFCE010E942001F1CFE1
:10030000EB8DEC0FFD2FF11DE35AFF4FF0829FB7ED
:10031000F8940B8FEA89FB8980818062CFCFCF93DD
:10032000DF93EC01888D8823B9F0AA89BB89E8891D
:10033000F9898C9185FD03C0808186FD0DC00FB6C3
:1003400007FCF7CF8C9185FFF2CF808185FFEDCF41
:10035000CE010E942001E9CFDF91CF91089590E076
:10036000FC01EC55FF4F2491FC01E057FF4F349105
:10037000FC01E458FF4FE491EE23C9F0222339F049
:10038000233001F1A8F4213019F1223029F1F0E0F5
:10039000EE0FFF1FEE58FF4FA591B4918FB7F89461
:1003A000EC91611126C030953E233C938FBF089598
:1003B0002730A9F02830C9F0243049F78091800017
:1003C0008F7D03C0809180008F7780938000DFCF86
:1003D00084B58F7784BDDBCF84B58F7DFBCF8091D3
:1003E000B0008F778093B000D2CF8091B0008F7D26
:1003F000F9CF3E2BDACFCF93DF9390E0FC01E057AB
:10040000FF4F249184589F4FFC0184918823D1F0A1
:1004100090E0880F991FFC01E859FF4FA591B49116
:10042000FC01EE58FF4FC591D49161110EC09FB7EA
:10043000F8948C91E22FE0958E238C932881E2230F
:10044000E8839FBFDF91CF9108958FB7F894EC9127
:10045000E22BEC938FBFF6CF3FB7F89480914F011A
:1004600090915001A0915101B091520126B5A89BE5
:1004700005C02F3F19F00196A11DB11D3FBFBA2F36
:10048000A92F982F8827BC01CD01620F711D811DF6
:10049000911D42E0660F771F881F991F4A95D1F77B
:1004A00008958F929F92AF92BF92CF92DF92EF9278
:1004B000FF924B015C010E942C026B017C010E94A7
:1004C0002C026C197D098E099F09683E73408105D5
:1004D0009105A8F321E0821A9108A108B10888EEDD
:1004E000C80E83E0D81EE11CF11C81149104A10404
:1004F000B10429F7FF90EF90DF90CF90BF90AF90BD
:100500009F908F9008950895089590E080E0089559
:100510000E9487008C33910534F40E948700CC97A9
:10052000E4F381E00895883C91053CF40E94870043
:10053000883C9105DCF382E00895803921E0920740
:100540003CF40E94870080399140DCF384E00895F8
:10055000883522E092073CF40E948700883592405B
:10056000DCF385E00895803223E092073CF40E949A
:10057000870080329340DCF386E008958335934012
:100580000CF4089588E108958F929F92AF92BF92E4
:10059000EF92FF920F931F93CF93DF93CDB7DEB708
:1005A000A1970FB6F894DEBF0FBECDBF7C01FA0154
:1005B000CB0119A2223008F42AE08E010F5D1F4FF3
:1005C000822E912CB12CA12CBF01A50194010E9477
:1005D0009708F901CA016A3074F5605DD8016E931D
:1005E0008D01232B242B252B79F790E080E01097A9
:1005F00089F0FD0101900020E9F73197AF014A1B16
:100600005B0BD701ED91FC910280F381E02DB801E5
:10061000C7010995A1960FB6F894DEBF0FBECDBFF6
:10062000DF91CF911F910F91FF90EF90BF90AF900E
:100630009F908F900895695CD1CFFC0101900020BC
:10064000E9F73197AF01481B590BBC0186EF91E0E8
:100650000C94A200CF92DF92EF92FF920F931F9320
:10066000CF93DF936B01770FEE08FF08F7FE1FC0F3
:10067000EC01E881F9810190F081E02D6DE20995AE
:100680008C0144275527BA014C195D096E097F0971
:100690002AE0CE010E94C402800F911FDF91CF910A
:1006A0001F910F91FF90EF90DF90CF9008952AE077
:1006B000B701A601DF91CF911F910F91FF90EF90AD
:1006C000DF90CF900C94C402CF93DF93EC0160E0F5
:1006D0008E810E94AF0161E08E810E94AF0160E0D7
:1006E0008E810E94AF018BE891E00197F1F7DF91D5
:1006F000CF910895CF92DF92EF92FF920F931F93C5
:10070000CF93DF936C017C0187E0E80EF11CD0E011
:10071000C0E0062F10E0B8010C2E02C07595679559
:100720000A94E2F76170F70181917F010E94AF01A5
:100730002196C430D10579F7C601DF91CF911F9181
:100740000F91FF90EF90DF90CF900C946403CF92C5
:10075000DF92EF92FF920F931F93CF93DF93EC0101
:10076000F62E642F8C810E94AF018D818F3F19F08E
:1007700060E00E94AF010F2D10E08F8584FF25C03F
:100780006E0187E0C80ED11CF12CE12CB8010E2CB3
:1007900002C0759567950A94E2F76170F601819140
:1007A0006F010E94AF01FFEFEF1AFF0A88E0E81621
:1007B000F10461F7CE01DF91CF911F910F91FF906E
:1007C000EF90DF90CF900C946403B80184E07595AE
:1007D00067958A95E1F7CE010E947A036F2DCE01CD
:1007E000DF91CF911F910F91FF90EF90DF90CF900D
:1007F0000C947A0340E0682F86EF91E00C94A703F5
:1008000081E00E94FA038BE39FE10197F1F70895DD
:10081000CF93DF93823029F49091050298609093F2
:1008200005028093090210920A0280E480930B0271
:1008300080E180930C0280E580930D0261E080915D
:10084000FA010E94FB018091FB018F3F19F061E0EA
:100850000E94FB0161E08091FC010E94FB01C6EF58
:10086000D1E09E01265F31408091050284FD0BC0DE
:1008700084E090E021962817390744F461E08E81E6
:100880000E94FB01EECF88E090E0F4CF8BE39DE087
:100890000197F1F760E08091FA010E94AF0160E0FA
:1008A0008091FC010E94AF018091FB018F3F19F004
:1008B00060E00E94AF018091050284FD34C063E0D6
:1008C00086EF91E00E947A03CBE4D6E4CE01019753
:1008D000F1F763E086EF91E00E947A032197F1F748
:1008E00063E086EF91E00E947A0383E592E001974E
:1008F000F1F762E086EF91E00E947A0380910502B1
:1009000080620E94FA0384E0809306028CE00E94D9
:10091000FA030E94000482E08093070286E0DF91E0
:10092000CF910C94FA0380620E94FA038BE496E460
:100930000197F1F78091050280620E94FA0383E536
:1009400092E00197F1F78091050280620E94FA031C
:10095000D5CF90910902691710F06FEF690FE62F5C
:10096000F0E0EA50FE4F9489890F80680C94FA03F6
:1009700041E00E94A70381E090E008951F920F924A
:100980000FB60F9211242F933F934F935F936F9362
:100990007F938F939F93AF93BF93EF93FF9389E5DB
:1009A00091E00E942001FF91EF91BF91AF919F9143
:1009B0008F917F916F915F914F913F912F910F9008
:1009C0000FBE0F901F9018951F920F920FB60F92A7
:1009D00011242F938F939F93EF93FF93E0916901DD
:1009E000F0916A018081E0916F01F091700182FDC8
:1009F0001BC09081809172018F5F8F732091730172
:100A0000821741F0E0917201F0E0E75AFE4F958FB6
:100A100080937201FF91EF919F918F912F910F9091
:100A20000FBE0F901F9018958081F4CF1F920F92E8
:100A30000FB60F9211242F933F938F939F93AF93F1
:100A4000BF9380914B0190914C01A0914D01B091C9
:100A50004E0130914A0123E0230F2D3758F50196BE
:100A6000A11DB11D20934A0180934B0190934C012D
:100A7000A0934D01B0934E0180914F019091500190
:100A8000A0915101B09152010196A11DB11D809319
:100A90004F0190935001A0935101B0935201BF9127
:100AA000AF919F918F913F912F910F900FBE0F901B
:100AB0001F90189526E8230F0296A11DB11DD2CFD5
:100AC0001F920F920FB60F9211242F933F934F93C3
:100AD0005F936F937F938F939F93AF93BF93EF93A6
:100AE000FF93E0910201F09103010995FF91EF91CD
:100AF000BF91AF919F918F917F916F915F914F9136
:100B00003F912F910F900FBE0F901F9018951F923D
:100B10000F920FB60F9211242F933F934F935F9331
:100B20006F937F938F939F93AF93BF93EF93FF93B5
:100B3000E0910001F09101010995FF91EF91BF91C2
:100B4000AF919F918F917F916F915F914F913F9165
:100B50002F910F900FBE0F901F9018951F920F921C
:100B60000FB60F9211245F936F937F938F939F9390
:100B7000AF93BF93809153019091540160915701BD
:100B8000709158010E94830870935601609355013B
:100B90001092540110925301BF91AF919F918F9188
:100BA0007F916F915F910F900FBE0F901F901895DE
:100BB000E9E5F1E01382128288EE93E0A0E0B0E074
:100BC00084839583A683B78388E091E091838083B3
:100BD00085EC90E09587848784EC90E09787868702
:100BE00080EC90E0918B808B81EC90E0938B828BFA
:100BF00082EC90E0958B848B86EC90E0978B868BD3
:100C0000118E128E138E148EE6EFF1E01382128293
:100C10008AE191E09183808388E084838FEF8583EC
:100C200089E0868384E0878385E0808786E081870A
:100C300087E082871386148615861686178681E0DC
:100C40000C940804CF93DF9300D000D0CDB7DEB76B
:100C5000789484B5826084BD84B5816084BD85B597
:100C6000826085BD85B5816085BD80916E008160A3
:100C700080936E0010928100809181008260809349
:100C8000810080918100816080938100809180004B
:100C90008160809380008091B10084608093B10076
:100CA0008091B00081608093B00080917A00846070
:100CB00080937A0080917A00826080937A0080919C
:100CC0007A00816080937A0080917A0080688093B6
:100CD0007A001092C10082E00E94080460E085E082
:100CE0000E94A90482E291E00E941D0361E082E07B
:100CF0000E94A90489E291E00E941D0368EE73E05E
:100D000080E090E00E94510268EE73E080E090E0A5
:100D10000E945102109254011092530110925601F8
:100D200010925501F8941092800010928100109258
:100D300085001092840088E09DE390938900809361
:100D4000880080918100886080938100809181007B
:100D500085608093810080916F00826080936F0036
:100D6000789488E190E00E946D0890E0909358019B
:100D70008093570184E090E00E946D088F3F99F4C2
:100D800062E088E190E00E94750868E184E090E00C
:100D90000E94750888E190E00E946D0890E09093B1
:100DA00058018093570160E083E00E94FB0188E9CD
:100DB00090E0909303018093020180916900837F0A
:100DC000886080936900E99A0E9400042AE0C22E9C
:100DD000D12C32E0932E40E0A42E40E0B42E9FECC4
:100DE000892E61E086E00E94A90485E491E00E94DA
:100DF0001D0361E087E00E94A90485E491E00E9460
:100E00001D0361E088E00E94A90485E491E00E944E
:100E10001D0361E089E00E94A90485E491E00E943D
:100E20001D0361E08AE00E94A90485E491E00E942C
:100E30001D0361E08BE00E94A90485E491E00E941B
:100E40001D0361E08CE00E94A90485E491E00E940A
:100E50001D0360E080E00E94A90485E391E00E9408
:100E60001D0360E08BE00E94A9046091570170911E
:100E7000580186EF91E00E942A0361E080E00E9421
:100E8000A90480E491E00E941D0361E087E00E94D4
:100E9000A904609155017091560186EF91E00E947E
:100EA0002A0364E670E080E090E00E9451020E9414
:100EB0008802813009F005C10E94000460E080E0F2
:100EC0000E94A90485E391E00E941D0360E08BE08D
:100ED0000E94A904609157017091580186EF91E03A
:100EE0000E942A030E948802853009F4EAC00E9409
:100EF0008802082F8630B1F7E0905701F090580132
:100F000060E08BE00E94A904B70186EF91E00E94A7
:100F10002A031C821B82C701B6010E948308462F48
:100F2000972F6983862FB6010E948308182F8A8322
:100F3000E0916901F0916A019082E0916501F09180
:100F400066011082E0916701F09168018082109241
:100F50007101E0916D01F0916E010083E0916B01F0
:100F6000F0916C01808180618083E0916B01F09150
:100F70006C01808188608083E0916B01F0916C014D
:100F8000808180688083E0916B01F0916C018081A9
:100F90008F7D808350E070E060E02AE089E591E099
:100FA0000E94C402412F50E070E060E02AE089E531
:100FB00091E00E94C4022AE040E050E0BA0189E5D5
:100FC00091E00E94C402F12CE12CE1E0F0E0EC0F92
:100FD000FD1FEE0DFF1D008110E00E94880282308F
:100FE00029F50115110511F001501109B80189E524
:100FF00091E00E942A0360E08BE08E0D0E94A9041C
:10100000B80186EF91E00E942A03E1E0F0E0EC0FE6
:10101000FD1FEE0DFF1D008361E08BE08E0D0E9431
:10102000A90487E491E00E941D03CFCF843049F4E6
:10103000093011051CF40F5F1F4FDDCF09E010E0F0
:10104000DACF8130A1F461E08BE00E94A90485E44D
:1010500091E00E941D0361E08CE00E94A90487E4F6
:1010600091E00E941D03EE24E394F12CD5CF85304E
:1010700099F461E08CE00E94A90485E491E00E946B
:101080001D0361E08BE00E94A90487E491E00E94C7
:101090001D03F12CE12CC0CF863009F0BDCF898132
:1010A0006A8170E09AE0899F600D711D1124709330
:1010B00058016093570188E190E00E9475080E94F2
:1010C0000004A114B10409F48CCE0E940C01882301
:1010D00009F485CE0E94000082CEF999FECF92BD20
:1010E00081BDF89A992780B50895262FF999FECFEA
:1010F0001FBA92BD81BD20BD0FB6F894FA9AF99A35
:101100000FBE0196089597FB072E16F4009407D0A2
:1011100077FD09D00E94B90807FC05D03EF49095F0
:1011200081959F4F0895709561957F4F0895A1E235
:101130001A2EAA1BBB1BFD010DC0AA1FBB1FEE1F51
:10114000FF1FA217B307E407F50720F0A21BB30B9C
:10115000E40BF50B661F771F881F991F1A9469F718
:1011600060957095809590959B01AC01BD01CF0174
:101170000895AA1BBB1B51E107C0AA1FBB1FA617DE
:10118000B70710F0A61BB70B881F991F5A95A9F730
:1011900080959095BC01CD010895EE0FFF1F05903D
:0A11A000F491E02D0994F894FFCFBC
:1011AA0083028302000000004201A200CF008F01E7
:1011BA000001DE00F20000000000B804A20085026F
:1011CA00840242686172617400456C656374726F6F
:1011DA006E6963730057696E6773206E6F3A2D00EC
:0A11EA0052706D3A2D20005E0000E7
:00000001FF
